:100EF800E4F508120F12120E6DE508FB7A00750D65
:0A0F0800027D017F01120D2080EF31
:03000B00020D845F
:100D8400C0E0C0F0C083C082C0D075D000C000C035
:0D0D940001C002C003C004C005C006C007B6
:100DA100758A66758CFC0532E53270020531C39493
:100DB10014E53194004009753100753200120800C4
:100DC100D007D006D005D004D003D002D001D00086
:0B0DD100D0D0D082D083D0F0D0E03230
:080ED900C2918F80D2927F01CB
:100EE100EFD3940074809480400C007E0B7DC7DDAD
:060EF100FEDEFC1F80EA9A
:010EF70022D8
:060F480000007F26DFFE21
:010F4E002280
:0C0F3C00C290120ED9C2927F01020EE199
:100E9500AC0BAD0CCFCDCFCECCCE120B5B7C007D99
:080EA5000A120B5BED2430FF83
:0C0EAD00D290120ED9C2927F01020EE119
:060EB900C313FD120DE061
:100EBF00E4FC7580FFD290D291D292120F48AC8091
:090ECF00C2927F01120EE1AF0492
:010ED80022F7
:040DDC00C31304FD3C
:100DE000AE07EE64017005ED247F801EEE64027094
:100DF00005ED248F8014EE64037005ED2487800ACE
:0F0E0000AF06EF64047007ED2497FF120F3C223A
:100E6D007F30120F3C7F02120F3C7F05120EE17F87
:100E7D000C120F3C7F06120F3C7F80120F3C7F013E
:080E8D00120F3C7F05020EE18B
:040E4000AA05A9074F
:100E4400E4FCEA54017016EA120EB9AC07AF01EAE9
:100E5400C313FD120DE0AF04120EAD8006AF01EA1C
:080E6400120DDCAF03120EAD0C
:010E6C002263
:0A0CB8008F228D238B248A258926C4
:100CC200E4FCE52354017032E523120EB9AC07E5CA
:100CD20023C313FDAF22120DE0AF04120EADE4F5F3
:100CE20027AB24AA25A926852782758300120B1C0F
:100CF200FF602A120EAD052780E7E523AF22120D11
:100D0200DCE4F527AB24AA25A92685278275830072
:0D0D1200120B1CFF6007120EAD052780E7D5
:010D1F0022B1
:0A0E0F00EF24FFFDEE34FFFC7F0A24
:080E19008E0F8F108C118D1259
:100E21007F017E00E4FBEBC39512E5116480F87449
:0E0E31008098500AAC0FAD10120B490B80E8F0
:010E3F002290
:080D20008F098D0A8A0B8B0C70
:100D2800E4FCE50A54017031E50A120EB9AC07E596
:100D38000AC313FDAF09120DE0AF04120EAD850D05
:100D48000EAF0E7E00D3EF940074809480402C1276
:100D58000E0F120E95150E80E8E50AAF09120DDC8C
:100D6800850D0EAF0E7E00D3EF9400748094804002
:0B0D78000A120E0F120E95150E80E8F7
:010D8300224D
:0809BE008F138D148A158B16AE
:1009C600E4FCE5145401705BE514120EB9AC07E5BE
:1009D60014C313FDAF13120DE0AF04120EADC3E541
:1009E6001564809480400D7F2B120EAD85151985F8
:1009F600161A80107F2D120EADC3E49516F51AE473
:100A06009515F519851718AF187E00D3EF94007465
:100A1600809480405E120E0FAC19AD1A120E991515
:100A26001880E4E514C31304FDAF13120DE0C3E50B
:100A36001564809480400D7F2B120EAD85151985A7
:100A4600161A80107F2D120EADC3E49516F51AE422
:100A56009515F519851718AF187E00D3EF94007415
:100A6600809480400E120E0FAC19AD1A120E991515
:030A76001880E401
:010A7900225A
:0808F7008F1B8D1C8A1D8B1E56
:1008FF00E4FCE51C54017062E51C120EB9AC07E56F
:10090F001CC313FDAF1B120DE0AF04120EAD851FFC
:10091F0020AF207E00D3EF940074809480500302A8
:10092F0009BDEF24FFFDEE34FFFC7F10120E19AC52
:10093F001DAD1ECFCDCFCECCCE120B5BEF540FF52E
:10094F0021C3940A74809480E521500424308002DE
:10095F002437FF120EAD152080B7E51CC31304FD1D
:10096F00AF1B120DE0851F20AF207E00D3EF940048
:10097F00748094804038EF24FFFDEE34FFFC7F102D
:10098F00120E19AC1DAD1ECFCDCFCECCCE120B5B40
:10099F00EF540FF521C3940A74809480E52150041D
:0E09AF00243080022437FF120EAD152080BACE
:0109BD002217
:080A7A008F288D298A2A8B2B9D
:100A8200E4FCE5295401704EE529120EB9AC07E5E4
:100A920029C313FDAF28120DE0AF04120EAD852C51
:100AA2002DAF2D7E00D3EF940074809480406AEFC6
:100AB20024FFFDEE34FFFC7F02120E19AC2AAD2B8F
:100AC200CFCDCFCECCCE120B5BEF54012430FF1230
:100AD2000EAD152D80CBE529C31304FDAF28120DF1
:100AE200E0852C2DAF2D7E00D3EF9400748094808E
:100AF2004027EF24FFFDEE34FFFC7F02120E19ACFB
:100B02002AAD2BCFCDCFCECCCE120B5BEF5401242E
:090B120030FF120EAD152D80CB51
:010B1B0022B7
:030F550001300068
:050F4F00E4AF30F530B5
:010F5400227A
:100C3C00E4FF75B0FFC2B020B7047F04801320B668
:100C4C00047F03800C20B5047F02800520B4027F52
:100C5C000175B0FFC2B120B7047F08801320B60421
:100C6C007F07800C20B5047F06800520B4027F0529
:100C7C0075B0FFC2B220B7047F0C801320B6047F7E
:100C8C000B800C20B5047F0A800520B4027F097507
:100C9C00B0FFC2B320B7037F102220B6037F0F2210
:0B0CAC0020B5037F0E2220B4027F0D54
:010CB700221A
:10080000852F2E120C3C8F2FAF2E7E00EF640170CF
:1008100008E52F700475300122EF64024E7008E580
:100820002F700475300222E52E64037008E52F70E6
:100830000475300322AF2E7E00EF64047008E52FAC
:10084000700475300422EF64054E7008E52F7004C3
:1008500075300522E52E64067008E52F70047530AA
:100860000622AF2E7E00EF64077008E52F70047536
:10087000300722EF64084E7008E52F7004753008C9
:1008800022E52E64097008E52F700475300922AF47
:100890002E7E00EF640A7008E52F700475300A227E
:1008A000EF640B4E7008E52F700475300B22E52EB7
:1008B000640C7008E52F700475300C22AF2E7E009A
:1008C000EF640D7008E52F700475300D22EF640E93
:1008D0004E7008E52F700475300E22E52E640F70FF
:1008E00008E52F700475300F22E52E64107007E5BF
:0608F0002F7003753010AB
:0108F60022DF
:100F12005389F0438901758A66758CFCC28DD28C27
:050F2200D2A9D2AF22AC
:100F270053890F438910758B66758DFCC28FD28EDE
:050F3700D2ABD2AF2295
:03000000020BB040
:0C0BB000787FE4F6D8FD758132020BF767
:100B1C00BB010CE58229F582E5833AF583E022508E
:100B2C0006E92582F8E622BBFE06E92582F8E222D8
:0D0B3C00E58229F582E5833AF583E49322F2
:100B4900EF8DF0A4A8F0CF8CF0A428CE8DF0A42EC0
:020B5900FE227A
:100B5B00BC000BBE0029EF8DF084FFADF022E4CC7E
:100B6B00F875F008EF2FFFEE33FEEC33FCEE9DEC47
:100B7B00984005FCEE9DFE0FD5F0E9E4CEFD22ED8D
:100B8B00F8F5F0EE8420D21CFEADF075F008EF2FD7
:100B9B00FFED33FD4007985006D5F0F222C398FDC8
:050BAB000FD5F0EA2265
:100BBC00020EF8E493A3F8E493A34003F68001F249
:100BCC0008DFF48029E493A3F85407240CC8C3333A
:100BDC00C4540F4420C8834004F456800146F6DF09
:100BEC00E4800B0102040810204080900F55E47E35
:100BFC00019360BCA3FF543F30E509541FFEE493FE
:100C0C00A360010ECF54C025E060A840B8E493A3C4
:100C1C00FAE493A3F8E493A3C8C582C8CAC583CAEF
:100C2C00F0A3C8C582C8CAC583CADFE9DEE780BEA7
:010F58000098
:00000001FF
