:0C04DB0068656C6C6F20776F726C6400B9
:10038800E4F508120450D2B7C2A6C2A7750D027BC5
:10039800397A007D017F011203247BFF7A0479DB1F
:1003A8007D027F021202BC750D037B307A007D024C
:0703B8007F0312000380D552
:0804BC00C2B68F80D2B47F01AB
:1004C400EFD3940074809480400C007E0B7DC7DDD4
:0604D400FEDEFC1F80EAC1
:0104DA0022FF
:0604FF0000007F26DFFE75
:0105050022D3
:0C04E700C2B51204BCC2B47F010204C400
:10047800AC0BAD0CCFCDCFCECCCE1202677C007DBD
:080488000A120267ED2430FFA7
:0C049000D2B51204BCC2B47F010204C447
:06049C00C313FD1203C3AF
:1004A200E4FC7580FFD2B5D2B6D2B41204FFAC80A0
:0904B200C2B47F011204C4AF04BE
:0104BB00221E
:0403BF00C31304FD63
:1003C300AE07EE64017005ED247F801EEE640270BB
:1003D30005ED248F8014EE64037005ED2487800AF5
:0F03E300AF06EF64047007ED2497FF1204E722C2
:100450007F301204E77F021204E77F051204C47F95
:100460000C1204E77F061204E77F801204E77F0185
:080470001204E77F050204C439
:04042300AA05A90776
:10042700E4FCEA54017016EA12049CAC07AF01EA37
:10043700C313FD1203C3AF041204908006AF01EA91
:080447001203BFAF0312049081
:01044F00228A
:0A02BC008F098D0A8B0B8A0C890D47
:1002C600E4FCE50A54017032E50A12049CAC07E529
:1002D6000AC313FDAF091203C3AF04120490E4F579
:1002E6000EAB0BAA0CA90D850E827583001202288F
:1002F600FF602A120490050E80E7E50AAF09120393
:10030600BFE4F50EAB0BAA0CA90D850E8275830012
:0D031600120228FF6007120490050E80E718
:0103230022B7
:0A03F200EF24FFFDEE34FFFC7F0A4C
:0803FC008E108F118C128D137D
:100404007F017E00E4FBEBC39513E5126480F8746E
:0E0414008098500AAC10AD111202550B80E812
:0104220022B7
:080324008F098D0A8A0B8B0C76
:10032C00E4FCE50A54017031E50A12049CAC07E5C3
:10033C000AC313FDAF091203C3AF04120490850D59
:10034C000EAF0E7E00D3EF940074809480402C127C
:10035C0003F2120478150E80E8E50AAF091203BF08
:10036C00850D0EAF0E7E00D3EF9400748094804008
:0B037C000A1203F2120478150E80E84C
:010387002253
:0800CA008F148D158A168B17A7
:1000D200E4FCE5155401705BE51512049CAC07E5E0
:1000E20015C313FDAF141203C3AF04120490C3E58A
:1000F2001664809480400D7F2B12049085161A8519
:10010200171B80107F2D120490C3E49517F51BE492
:100112009516F51A851819AF197E00D3EF9400745D
:10012200809480405E1203F2AC1AAD1B12047C155F
:100132001980E4E515C31304FDAF141203C3C3E52C
:100142001664809480400D7F2B12049085161A85C8
:10015200171B80107F2D120490C3E49517F51BE442
:100162009516F51A851819AF197E00D3EF9400740D
:10017200809480400E1203F2AC1AAD1B12047C155F
:030182001980E4FD
:010185002257
:080003008F098D0A8A0B8B0C9A
:10000B00E4FCE50A54017062E50A12049CAC07E5B6
:10001B000AC313FDAF091203C3AF04120490850D7D
:10002B000EAF0E7E00D3EF940074809480500302C9
:10003B0000C9EF24FFFDEE34FFFC7F101203FCAC74
:10004B000BAD0CCFCDCFCECCCE120267EF540FF54C
:10005B000FC3940A74809480E50F500424308002FF
:10006B002437FF120490150E80B7E50AC31304FD65
:10007B00AF091203C3850D0EAF0E7E00D3EF9400B4
:10008B00748094804038EF24FFFDEE34FFFC7F102A
:10009B001203FCAC0BAD0CCFCDCFCECCCE12026786
:1000AB00EF540FF50FC3940A74809480E50F50043E
:0E00BB00243080022437FF120490150E80BA04
:0100C9002214
:080186008F1C8D1D8A1E8B1FCA
:10018E00E4FCE51D5401704EE51D12049CAC07E520
:10019E001DC313FDAF1C1203C3AF041204908520C0
:1001AE0021AF217E00D3EF940074809480406AEFDB
:1001BE0024FFFDEE34FFFC7F021203FCAC1EAD1FCC
:1001CE00CFCDCFCECCCE120267EF54012430FF122A
:1001DE000490152180CBE51DC31304FDAF1C120343
:1001EE00C3852021AF217E00D3EF940074809480CC
:1001FE004027EF24FFFDEE34FFFC7F021203FCAC20
:10020E001EAD1FCFCDCFCECCCE120267EF54012440
:09021E0030FF120490152180CB81
:0102270022B4
:030000000204F304
:0C04F300787FE4F6D8FD758121020388B3
:10022800BB010CE58229F582E5833AF583E022508B
:1002380006E92582F8E622BBFE06E92582F8E222D5
:0D024800E58229F582E5833AF583E49322EF
:10025500EF8DF0A4A8F0CF8CF0A428CE8DF0A42EBD
:02026500FE2277
:10026700BC000BBE0029EF8DF084FFADF022E4CC7B
:10027700F875F008EF2FFFEE33FEEC33FCEE9DEC44
:10028700984005FCEE9DFE0FD5F0E9E4CEFD22ED8A
:10029700F8F5F0EE8420D21CFEADF075F008EF2FD4
:1002A700FFED33FD4007985006D5F0F222C398FDC5
:0502B7000FD5F0EA2262
:00000001FF
